{
  "contractName": "ticketingSystem",
  "abi": [
    {
      "constant": true,
      "inputs": [
        {
          "name": "",
          "type": "uint256"
        }
      ],
      "name": "artistsRegister",
      "outputs": [
        {
          "name": "iD",
          "type": "uint256"
        },
        {
          "name": "name",
          "type": "bytes32"
        },
        {
          "name": "category",
          "type": "uint256"
        },
        {
          "name": "owner",
          "type": "address"
        }
      ],
      "payable": false,
      "stateMutability": "view",
      "type": "function"
    },
    {
      "constant": false,
      "inputs": [
        {
          "name": "_name",
          "type": "bytes32"
        },
        {
          "name": "_category",
          "type": "uint256"
        }
      ],
      "name": "createArtist",
      "outputs": [],
      "payable": false,
      "stateMutability": "nonpayable",
      "type": "function"
    },
    {
      "constant": false,
      "inputs": [
        {
          "name": "_artistID",
          "type": "uint256"
        },
        {
          "name": "_newName",
          "type": "bytes32"
        },
        {
          "name": "_newCategory",
          "type": "uint256"
        }
      ],
      "name": "modifyArtist",
      "outputs": [],
      "payable": false,
      "stateMutability": "nonpayable",
      "type": "function"
    }
  ],
  "bytecode": "0x60806040526001805534801561001457600080fd5b50610366806100246000396000f3fe608060405260043610610057576000357c0100000000000000000000000000000000000000000000000000000000900463ffffffff16806397af29301461005c5780639a80b35e146100ec578063e62e4f8d1461013b575b600080fd5b34801561006857600080fd5b506100956004803603602081101561007f57600080fd5b8101908080359060200190929190505050610180565b604051808581526020018481526020018381526020018273ffffffffffffffffffffffffffffffffffffffff1673ffffffffffffffffffffffffffffffffffffffff16815260200194505050505060405180910390f35b3480156100f857600080fd5b506101396004803603606081101561010f57600080fd5b810190808035906020019092919080359060200190929190803590602001909291905050506101d0565b005b34801561014757600080fd5b5061017e6004803603604081101561015e57600080fd5b810190808035906020019092919080359060200190929190505050610278565b005b60006020528060005260406000206000915090508060000154908060010154908060020154908060030160009054906101000a900473ffffffffffffffffffffffffffffffffffffffff16905084565b3373ffffffffffffffffffffffffffffffffffffffff1660008085815260200190815260200160002060030160009054906101000a900473ffffffffffffffffffffffffffffffffffffffff1673ffffffffffffffffffffffffffffffffffffffff1614151561023f57600080fd5b81600080858152602001908152602001600020600101819055508060008085815260200190815260200160002060020181905550505050565b600154600080600154815260200190815260200160002060000181905550816000806001548152602001908152602001600020600101819055508060008060015481526020019081526020016000206002018190555033600080600154815260200190815260200160002060030160006101000a81548173ffffffffffffffffffffffffffffffffffffffff021916908373ffffffffffffffffffffffffffffffffffffffff160217905550600160008154809291906001019190505550505056fea165627a7a723058209e4447e7a1728c85716df55e0a076fec32f9d970ea16dae7469369a51b6ebdda0029",
  "source": "pragma solidity >=0.4.21 <0.6.0;\r\n\r\ncontract ticketingSystem {\r\n\r\n\r\n\r\n\tstruct Artist{\r\n\t\tuint iD;\r\n\t\tbytes32 name;\r\n\t\tuint category;\r\n\t\taddress owner;\r\n\t}\r\n\r\n\tmapping  (uint => Artist) public artistsRegister;\r\n\tuint nextID=1;\r\n\r\n\t/*constructor () public {\r\n\t\tnextID = 1;\r\n\t}*/\r\n\r\n\tfunction createArtist(bytes32 _name, uint _category) public {\r\n\r\n\t\tartistsRegister[nextID].iD = nextID;\r\n\t\tartistsRegister[nextID].name = _name;\r\n\t\tartistsRegister[nextID].category = _category;\r\n\t\tartistsRegister[nextID].owner = msg.sender;\r\n\r\n\t\tnextID ++;\r\n\t}\r\n\r\n\r\n\tfunction modifyArtist(uint _artistID, bytes32 _newName, uint _newCategory) public {\r\n\t\trequire(artistsRegister[_artistID].owner == msg.sender);\r\n\r\n\t\tartistsRegister[_artistID].name = _newName;\r\n\t\tartistsRegister[_artistID].category = _newCategory;\r\n\r\n\t}\r\n\r\n}",
  "sourcePath": "C:/Users/Ewan Debove/Desktop/Blockchain/td7/contracts/ticketingSystem.sol",
  "compiler": {
    "name": "solc",
    "version": "0.5.0+commit.1d4f565a.Emscripten.clang"
  },
  "schemaVersion": "3.0.5",
  "updatedAt": "2019-03-22T14:12:39.841Z",
  "devdoc": {
    "methods": {}
  },
  "userdoc": {
    "methods": {}
  }
}